S01200005045502D68617A695F76342E7333371B
S11300000000022091010000BD010000BD010000BC
S1130010BD010000BD010000BD010000BD010000E4
S1130020BD010000BD010000BD010000E10C0000A5
S1130030BD010000BC010000810E0000C90E0000DB
S1130040BD010000BD010000BD010000BD010000B4
S1130050BD010000BD010000BD010000BD010000A4
S1130060BD010000BD010000BD010000BD01000094
S1130070BD010000BD010000BD010000BD01000084
S1130080BD010000BD010000BD010000BD01000074
S1130090F9540000BD010000BD010000BD010000D5
S11300A0BD010000BD010000BD010000BD01000054
S11300B0BD010000BD010000BD010000BD01000044
S11300C0BD010000BD010000BD010000BD01000034
S11300D0BD010000BD010000BD01000010B5054CCC
S11300E0237833B9044B13B10448AFF300800123E0
S11300F0237010BD44020020000000006C6E00005C
S113010008B5034B1BB103490348AFF3008008BD96
S113011000000000480200206C6E0000154B002B0C
S113012008BF134B9D46A3F5803A00218B460F462A
S11301301348144A121A05F06AFF0F4B002B00D023
S113014098470E4B002B00D0984700200021040054
S11301500D000D48002802D00C48AFF3008005F0D4
S113016027FF2000290005F0B7F905F00DFF00BFB7
S11301700000080000000220000000000000000051
S113018044020020142A00200000000000000000A7
S1130190064880470649074A074B9A42BEBF51F8B2
S11301A0040B42F8040BF8E7FFF7B8FF350300002F
S11301B0786E00000000002044020020FEE700BF2B
S11301C080B400AF034BDB6C1B0EDBB21846BD469C
S11301D080BC7047B081E00F80B582B000AF00F002
S11301E01FF87860074B5B6803F00F037A6822FA04
S11301F003F37B60044A7B6813607B681846083706
S1130200BD4680BD00800C400800002080B400AFD3
S1130210024B1846BD4680BC704700BF006CDC0230
S113022080B582B000AF334BDB6A03F47053B3F58F
S1130230805F0AD0B3F5005F03D0B3F5006F08D038
S11302400BE02D4B1B687B6047E04FF400437B6061
S113025043E02A4B1B687B603FE0264BDB6803F4DA
S1130260E063B3F5007F1BD0B3F5007F05D8002B06
S113027024D0B3F5807F16D02BE0B3F5806F09D07E
S1130280B3F5A06F03D0B3F5407F06D021E01C4B3B
S11302907B6021E01B4B7B601EE01B4B7B601BE003
S11302A01A4B7B6018E0FFF78BFF0346122B02D931
S11302B0174B7B6010E0174B7B600DE0FFF780FF6E
S11302C00346122B02D9144B7B6005E0134B7B6071
S11302D002E000237B6000BF00BF064B1B689B0B42
S11302E003F0070301337A68B2FBF3F318460837C7
S11302F0BD4680BD00800C400400002000000020AA
S1130300003FAB01406F4001809FD500C0D8A700DB
S113031040B56400C0CF6A00804F120040420F0015
S113032080B400AF024B1B681846BD4680BC7047C2
S11303300000002080B400AF034B044A9A6000BF61
S1130340BD4680BC704700BF00ED00E00000000027
S113035080B400AF4FF400431846BD4680BC7047DC
S113036080B400AF4FF47A731846BD4680BC704722
S113037080B400AF024B1B681846BD4680BC704772
S11303800400002080B483B000AF0346FB71FB7906
S1130390002B03D0054B01221A6602E0034B002216
S11303A01A6600BF0C37BD4680BC704700A00840E9
S11303B080B483B000AF786000BF054B5A6E7B6891
S11303C01340002BF9D100BF0C37BD4680BC7047E9
S11303D000A0084080B483B000AF7860054B9A6AEF
S11303E07B68DB43034913408B6200BF0C37BD4677
S11303F080BC704700A0084080B500AF00222849A7
S1130400002004F017FB00222549012004F012FB10
S113041000222349022004F00DFB0022204903207E
S113042004F008FB00221E49042004F003FB002210
S11304301B49052004F0FEFA00221949062004F0A5
S1130440F9FA00221649072004F0F4FA0022FF21E9
S1130450002004F0BBFB0022FF21012004F0B6FBC6
S11304600022FF21022004F0B1FB0022FF2103201F
S113047004F0ACFB0022FF21042004F0A7FB0022BF
S1130480FF21052004F0A2FB0022FF21062004F036
S11304909DFB0022FF21072004F098FB00BF80BDD4
S11304A000F00FF080B500AF00222649072004F0C9
S11304B0C1FA00222449062004F0BCFA0022224991
S11304C0052004F0B7FA00221F49042004F0B2FA10
S11304D000221D49032004F0ADFA00221A4902202B
S11304E004F0A8FA00221849012004F0A3FA00221B
S11304F04FF02041002004F09DFA0022072107203C
S113050004F064FB00220721062004F05FFB0022B4
S11305100721052004F05AFB00220721042004F0DF
S113052055FB00220721032004F050FB0022072181
S1130530022004F04BFB00220721012004F046FBBB
S113054000BF80BD00E00F5000E00FF080B582B026
S113055000AF0346FB710121244803F07DF9032118
S1130560234803F09DFB4021224802F0F3FF0120C1
S113057003F000FD0121204803F06EF94FF0FF3035
S1130580FFF728FF1D4804F0D3F80121082004F0E8
S113059037F90121102004F033F90121802004F0FF
S11305A02FF901214FF4807004F02AF901214FF44E
S11305B0007004F025F9FB79002B0DD04FF4402096
S11305C004F0CCFB4FF4803004F0F8F80C4BDB6FF4
S11305D00B4A43F00803D367FFF70EFF4FF0FF30D9
S11305E0FFF7E6FE00BF0837BD4680BDD0433E009E
S11305F002001E0080002A0000362C00506B000010
S113060000800C4080B58AB000AF78607B6842F20D
S11306100E72934202DD42F20F737B607B6813F526
S11306207A7F01DC3D4B7B607B68002B06DA7868BF
S113063005F0A6FC78600123BB6101E00023BB61E7
S11306404FF0FF30FFF7B4FE0120FFF79BFE00F0F0
S11306506DF80123FB6100233B6254E07A68FB6977
S113066092FBF3F22E4B83FB02139910D317C91A92
S11306700B469B000B445B00D11A0B46FB82BB6903
S1130680012B04D13B6A032B01D11023FB82FB8A8B
S1130690244A32F81330BB8200237B6227E02249CC
S11306A03A6A1346DB009B1A5B00CA187B6A134440
S11306B0CB331B783B611C493A6A1346DB009B1A17
S11306C05B00CA187B6A1344C4331B78FB60BA8A84
S11306D07B6A42FA03F303F00103002B04D00122E6
S11306E03969F86804F0ACF87B6A01337B627B6A91
S11306F0062BD4DDFA6913469B0013445B00FB61AF
S11307003B6A01333B623B6A032BA7DD0020FFF702
S113071039FE00BF2837BD4680BD00BF19FCFFFF6E
S1130720676666662C6B00007468000080B500AFD5
S113073000227821012004F049FA002278210220C5
S113074004F044FA00227821032004F03FFA002246
S11307507821042004F03AFA00227821052004F0DC
S113076035FA00227821062004F030FA002278219C
S1130770072004F02BFA00BF80BD000080B58AB0CA
S113078000AF7860786805F06BFC0346BB6100231A
S11307903B624FF0FF30FFF70BFE0120FFF7F2FD45
S11307A0FFF780FE00233B6245E03A6ABB699A4248
S11307B003DA7B681B787B6201E020237B627B6A1F
S11307C0203B7B62214A7B6A32F81330FB82002390
S11307D0FB6127E01E493A6A1346DB009B1A9B0023
S11307E0CA18FB6913440E331B783B6118493A6AF3
S11307F01346DB009B1A9B00CA18FB6913441B7841
S1130800FB60FA8AFB6942FA03F303F00103002B4D
S113081005D0FB6839690122184604F011F8FB6918
S11308200133FB61FB690D2BD4DD7B6801337B60F5
S11308303B6A01333B623B6A062BB6DD0020FFF7BF
S1130840A1FD00BF2837BD4680BD00BF746A00000B
S11308507468000080B584B000AF78603960114AD4
S11308607B68134403F583731B78FB600D4A7B6834
S1130870134403F587731B78BB603B68002B06D0D9
S1130880FB68B9680122184603F0DAFF05E0FB684B
S1130890B9680022184603F0D3FF00BF1037BD46E5
S11308A080BD00BF7468000080B400AF054B1B69B5
S11308B0044A23F00403136130BF00BFBD4680BC6B
S11308C0704700BF00ED00E080B584B000AF0023A6
S11308D0FB730023BB6003F0D9FB786000F03CF8A5
S11308E00346FB70FB78022B02D0FB78032B01D16B
S11308F003F06EFD00F030F80346FB70FB78002B2C
S113090008D0FB78032B05D8FB78184600F042F892
S11309100346FB730F4B9B68002B05D00D4B9B6864
S1130920FA7B10469847B860BB6803F00103002BBC
S1130930E0D1FB7B022B02D0FB7B032B01D103F024
S11309404EFD786803F0B1FBFB7B18461037BD46BB
S113095080BD00BF6002002080B483B000AF0123DB
S1130960FB710B4B1B78002B07D10223FB71084B47
S11309705B78002B01D10323FB71FB79032B01D995
S11309800323FB71FB7918460C37BD4680BC7047C6
S11309906C02002080B584B000AF0346FB710123D4
S11309A0FB73FB79002B02D0FB79042B04D94FF4A1
S11309B0CB71214802F002FA204B1B68002B06D0B1
S11309C01E4B1B68FA79104698470346FB73FB7B62
S11309D083F00103DBB2002B01D0002327E0FB7975
S11309E0013B032B18D801A252F823F0FD090000A3
S11309F0030A00000B0A0000130A0000FFF754FF6B
S1130A000BE0002003F030FC07E0002003F07CFC46
S1130A1003E003F0EBFC00E000BF084B5B68002B35
S1130A2004D0064B5B68FA7910469847FB79184660
S1130A301037BD4680BD00BF646B0000600200201B
S1130A4080B584B000AF78600023FB607B6803F05E
S1130A500703002B04D07B6823F0070308337B6073
S1130A6001F0C6F9164B1B68002B05D1154B23F07A
S1130A7007031A46124B1A60134B1A687B68134417
S1130A8042F21F32934213D80F4B1A687B681A4400
S1130A900D4B1B689A420BD9094B1A680A4B1B6809
S1130AA01344FB60084B1A687B681344064A1360BE
S1130AB001F0ACF9FB6818461037BD4680BD00BF95
S1130AC09C250020780200209825002080B582B063
S1130AD000AF78607B68002B03D0B821034802F094
S1130AE06DF900BF0837BD4680BD00BF786B0000BC
S1130AF080B483B000AF78607B6803F108027B6840
S1130B005A607B684FF0FF329A607B6803F10802F9
S1130B107B68DA607B6803F108027B681A617B6892
S1130B2000221A6000BF0C37BD4680BC704780B4F9
S1130B3083B000AF78607B6800221A6100BF0C3775
S1130B40BD4680BC704780B485B000AF7860396022
S1130B507B685B68FB603B68FA685A60FB689A686C
S1130B603B689A60FB689B683A685A60FB683A681D
S1130B709A603B687A681A617B681B685A1C7B68B8
S1130B801A6000BF1437BD4680BC704780B485B07E
S1130B9000AF786039603B681B68BB60BB68B3F129
S1130BA0FF3F03D17B681B69FB600CE07B68083363
S1130BB0FB6002E0FB685B68FB60FB685B681B68CA
S1130BC0BA689A42F6D2FB685A683B685A603B6836
S1130BD05B683A689A603B68FA689A60FB683A68AE
S1130BE05A603B687A681A617B681B685A1C7B6888
S1130BF01A6000BF1437BD4680BC704780B485B00E
S1130C0000AF78607B681B69FB607B685B687A680F
S1130C1092689A607B689B687A6852685A60FB683D
S1130C205B687A689A4203D17B689A68FB685A6069
S1130C307B6800221A61FB681B685A1EFB681A60F5
S1130C40FB681B6818461437BD4680BC704700001B
S1130C5080B485B000AFF860B9607A60FB68043B8B
S1130C60FB60FB684FF080721A60FB68043BFB601A
S1130C70BB6823F00102FB681A60FB68043BFB605D
S1130C80084AFB681A60FB68143BFB607A68FB68DF
S1130C901A60FB68203BFB60FB6818461437BD46AE
S1130CA080BC7047A90C000080B582B000AF094B2E
S1130CB01B68B3F1FF3F03D0FF21074802F07EF821
S1130CC04FF0BF0383F31188BFF36F8FBFF34F8FD0
S1130CD07B60FEE70C000020986B00000000000021
S1130CE0074B19680868B0E8F00F80F30988BFF370
S1130CF06F8F4FF0000080F311884EF00D0E704797
S1130D00A825002000BF00BF06480068006880F3E3
S1130D10088862B661B6BFF34F8FBFF36F8F00DFF1
S1130D2000BF00BF08ED00E080B584B000AF284BE1
S1130D30FB60FB681B78DBB2BB60FB68FF221A70A8
S1130D40FB681B78DBB2FB71FB79DBB223F0400359
S1130D50DAB2204B1A70204B07221A6009E01E4BAE
S1130D601B68013B1C4A1360FB79DBB25B00DBB2FE
S1130D70FB71FB79DBB203F08003802BEFD0164BC1
S1130D801B681B02144A1360134B1B6803F4E063D3
S1130D90114A1360BB68DAB2FB681A700F4B1B6808
S1130DA00E4A43F47F0313600C4B1B680B4A43F059
S1130DB07F43136000F0A8F8094B00221A60FFF784
S1130DC0A3FFFFF771FF002318461037BD4680BD0F
S1130DD000E400E0A0250020A425002020ED00E090
S1130DE00C00002080B582B000AF4FF0BF0383F346
S1130DF01188BFF36F8FBFF34F8F7B600B4B1B6862
S1130E0001330A4A1360094B1B68012B09D1084BB3
S1130E101B68DBB2002B04D04FF4C671054801F007
S1130E20CDFF00BF0837BD4680BD00BF0C000020C9
S1130E3004ED00E0986B000080B582B000AF0D4B6C
S1130E401B68002B04D140F293110B4801F0B6FF4C
S1130E50084B1B68013B074A1360064B1B68002BB9
S1130E6004D100237B607B6883F3118800BF0837BB
S1130E70BD4680BD0C000020986B000000000000FF
S1130E80EFF30980BFF36F8F0D4B1A6820E9F00F61
S1130E9010602DE908404FF0BF0080F3118801F085
S1130EA015F94FF0000080F31188BDE80840196877
S1130EB00868B0E8F00F80F30988BFF36F8F7047BC
S1130EC0A825002000BF00BF80B582B000AF4FF05E
S1130ED0BF0383F31188BFF36F8FBFF34F8F7B6022
S1130EE001F03AF80346002B03D0064B4FF0805232
S1130EF01A6000233B603B6883F3118800BF083706
S1130F00BD4680BD04ED00E080B400AF054B43F264
S1130F10AF621A60044B07221A6000BFBD4680BC52
S1130F20704700BF14E000E010E000E080B582B03C
S1130F3000AFEFF305837B607B680F2B0ED9104A5B
S1130F407B6813441B78FB700E4B1B78FA789A422B
S1130F5004D240F2AB210C4801F030FF0B4B1B686C
S1130F6003F4E0620A4B1B689A4204D940F2BB21A5
S1130F70054801F023FF00BF0837BD4680BD00BF10
S1130F80F0E300E0A0250020986B00000CED00E0E9
S1130F90A425002080B584B000AF786039607B68F8
S1130FA0FB60FB68002B04D14FF49471294801F0D5
S1130FB005FFFFF717FFFB681A68FB68DB6BF9682E
S1130FC0096C01FB03F31A44FB685A60FB680022B6
S1130FD09A63FB681A68FB689A60FB681A68FB6886
S1130FE0DB6B013BF968096C01FB03F31A44FB68F2
S1130FF0DA60FB68FF2283F84420FB68FF2283F851
S113100045203B68002B14D1FB681B69002B1AD0C8
S1131010FB681033184601F0F7F80346002B12D092
S11310200D4B4FF080521A60BFF34F8FBFF36F8F99
S113103009E0FB6810331846FFF75AFDFB682433B8
S11310401846FFF755FDFFF7F7FE01231846103742
S1131050BD4680BDB86B000004ED00E080B58AB0E9
S113106002AFF860B9601346FB71FB68002B04D132
S113107040F29511134801F0A1FEBB68002B02D188
S11310800023FB6104E0FB68BA6802FB03F3FB6125
S1131090FB6948331846FFF7D3FCB861BB69002BE2
S11310A00BD0BB6948337B61FA79BB690093134663
S11310B07A69B968F86800F007F8BB691846203700
S11310C0BD4680BDB86B000080B584B000AFF86049
S11310D0B9607A60FB70BB68002B03D1BB69BA6945
S11310E01A6002E0BB697A681A60BB69FA68DA635D
S11310F0BB69BA681A640121B869FFF74BFF00BFE6
S11311001037BD4680BD000080B58AB000AFF860DE
S1131110B9607A603B6000237B62FB683B623B6A98
S1131120002B04D140F2E621624801F047FEBB687F
S1131130002B08D13B6A1B6C002B04D040F2E72142
S11311405C4801F03BFE3B68022B08D13B6ADB6B39
S1131150012B04D04FF43A71564801F02FFE01F0F0
S1131160EBF90346002B07D17B68002B04D040F237
S1131170EB21504801F022FEFFF734FE3B6A9A6BE4
S11311803B6ADB6B9A4202D33B68022B29D13A6853
S1131190B968386A00F00CFAF8613B6A5B6A002BA4
S11311A010D03B6A2433184601F02EF80346002B76
S11311B013D0414B4FF080521A60BFF34F8FBFF3EF
S11311C06F8F0AE0FB69002B07D03B4B4FF0805236
S11311D01A60BFF34F8FBFF36F8FFFF72DFE01230C
S11311E063E07B68002B03D1FFF726FE00235CE05D
S11311F07B6A002B06D107F11403184601F062F84C
S113120001237B62FFF718FE00F0F2FDFFF7EAFD11
S11312103B6A93F844305BB2B3F1FF3F03D13B6ABE
S1131220002283F844203B6A93F845305BB2B3F163
S1131230FF3F03D13B6A002283F84520FFF7FCFD02
S11312403A1D07F114031146184601F059F80346F4
S1131250002B24D1386A00F0A3FA0346002B18D0DF
S11312603B6A10337A681146184600F085FF386AE5
S113127000F02EFA00F0CAFD0346002B7FF47CAF89
S11312800D4B4FF080521A60BFF34F8FBFF36F8F37
S113129072E7386A00F01CFA00F0B8FD6CE7386AAF
S11312A000F016FA00F0B2FD002318462837BD46B8
S11312B080BD00BFB86B000004ED00E080B58CB0C9
S11312C000AFF860B9607A603B60FB68BB62BB6AE0
S11312D0002B04D14FF46B71364801F06FFDBB68ED
S11312E0002B08D1BB6A1B6C002B04D040F2AD313B
S11312F0304801F063FD3B68022B08D1BB6ADB6B0D
S1131300012B04D040F2AE312A4801F057FDFFF71B
S11313100DFEEFF311824FF0BF0383F31188BFF387
S11313206F8FBFF34F8FFA61BB61FB697B62BB6A4E
S11313309A6BBB6ADB6B9A4202D33B68022B2CD1BB
S1131340BB6A93F8453087F823303A68B968B86ABD
S113135000F02EF997F92330B3F1FF3F12D1BB6AA5
S11313605B6A002B16D0BB6A2433184600F04CFF8E
S11313700346002B0ED07B68002B0BD07B68012228
S11313801A6007E097F823300133DBB25AB2BB6A24
S113139083F845200123FB6201E00023FB627B6AA2
S11313A07B617B6983F31188FB6A18463037BD463D
S11313B080BD00BFB86B000080B58AB000AFF86094
S11313C0B9607A603B6000237B62FB683B623B6AE6
S11313D0002B04D140F2E941734801F0EFFCBB68F3
S11313E0002B08D13B6A1B6C002B04D040F2EA416D
S11313F06D4801F0E3FC01F09FF80346002B07D190
S11314007B68002B04D040F2ED41674801F0D6FC24
S1131410FFF7E8FC3B6A9B6BFB61FB69002B46D042
S11314203B6ADB68BB61B968386A00F02BF93B683A
S1131430002B21D1FB695A1E3B6A9A633B6A1B68E5
S1131440002B04D101F088F902463B6A5A603B6ADA
S11314501B69002B27D03B6A1033184600F0D4FEDA
S11314600346002B1FD0514B4FF080521A60BFF33C
S11314704F8FBFF36F8F16E03B6ABA69DA603B6A3D
S11314805B6A002B0FD03B6A2433184600F0BCFE85
S11314900346002B07D0454B4FF080521A60BFF330
S11314A04F8FBFF36F8FFFF7C7FC012377E07B6893
S11314B0002B03D1FFF7C0FC002370E07B6A002BF4
S11314C006D107F11003184600F0FCFE01237B62ED
S11314D0FFF7B2FC00F08CFCFFF784FC3B6A93F846
S11314E044305BB2B3F1FF3F03D13B6A002283F87F
S11314F044203B6A93F845305BB2B3F1FF3F03D11C
S11315003B6A002283F84520FFF796FC3A1D07F159
S113151010031146184600F0F3FE0346002B31D1A8
S1131520386A00F027F90346002B25D03B6A1B6874
S1131530002B08D1FFF756FC3B6A5B68184601F0A4
S113154019F8FFF779FC3B6A24337A681146184688
S113155000F012FE386A00F0BBF800F057FC0346B6
S1131560002B7FF455AF114B4FF080521A60BFF33C
S11315704F8FBFF36F8F4BE7386A00F0A9F800F084
S113158045FC45E7386A00F0A3F800F03FFC386AF0
S113159000F0F0F80346002B3FF43AAF002318465E
S11315A02837BD4680BD00BFB86B000004ED00E0E5
S11315B080B586B000AFF860B9607A6000237B61C3
S11315C0FB689B6B3B61FB681B6C002B0DD1FB68BC
S11315D01B68002B4DD1FB685B68184601F040F88E
S11315E07861FB6800225A6043E07B68002B19D1C4
S11315F0FB689868FB681B6C1A46B96804F0FCFC2D
S1131600FB689A68FB681B6C1A44FB689A60FB6869
S11316109A68FB685B689A422BD3FB681A68FB687C
S11316209A6026E0FB68D868FB681B6C1A46B968A8
S113163004F0E2FCFB68DA68FB681B6C5B421A444A
S1131640FB68DA60FB68DA68FB681B689A4207D2B9
S1131650FB685A68FB681B6C5B421A44FB68DA60DF
S11316607B68022B05D13B69002B02D03B69013B0F
S11316703B613B695A1CFB689A637B6918461837BF
S1131680BD4680BD80B582B000AF786039607B68AC
S11316901B6C002B18D07B68DA687B681B6C1A44BF
S11316A07B68DA607B68DA687B685B689A4203D39C
S11316B07B681A687B68DA607B68D9687B681B6C16
S11316C01A46386804F098FC00BF0837BD4680BD50
S11316D080B584B000AF7860FFF784FB7B6893F833
S11316E04530FB7311E07B685B6A002B12D07B688A
S11316F02433184600F088FD0346002B01D000F087
S113170055FEFB7B013BDBB2FB7397F90F30002BDB
S1131710E9DC00E000BF7B68FF2283F84520FFF787
S11317208BFBFFF75FFB7B6893F84430BB7311E0DE
S11317307B681B69002B12D07B681033184600F0BD
S113174063FD0346002B01D000F030FEBB7B013B60
S1131750DBB2BB7397F90E30002BE9DC00E000BF6D
S11317607B68FF2283F84420FFF766FB00BF103735
S1131770BD4680BD80B584B000AF7860FFF732FB12
S11317807B689B6B002B02D10123FB6001E00023EB
S1131790FB60FFF751FBFB6818461037BD4680BD60
S11317A080B584B000AF7860FFF71CFB7B689A6B50
S11317B07B68DB6B9A4202D10123FB6001E00023CA
S11317C0FB60FFF739FBFB6818461037BD4680BD48
S11317D080B485B000AF786039600023FB6014E00A
S11317E00E4AFB6852F83330002B0BD10B49FB68CF
S11317F03A6841F83320094AFB68DB0013447A68ED
S11318005A6005E0FB680133FB60FB68092BE7D9EC
S113181000BF1437BD4680BC704700BFD4260020EB
S113182080B586B000AFF860B9607A60FB687B6110
S1131830FFF7D8FA7B6993F844305BB2B3F1FF3F0A
S113184003D17B69002283F844207B6993F84530F7
S11318505BB2B3F1FF3F03D17B69002283F84520DB
S1131860FFF7EAFA7B699B6B002B06D17B69243373
S11318707A68B968184600F09FFC7869FFF728FF7A
S113188000BF1837BD4680BD80B58CB004AFF8608A
S1131890B9603B601346FB80FB889B001846FFF74A
S11318A0CFF878617B69002B0ED05020FFF7C8F881
S11318B0F861FB69002B03D0FB697A691A6305E0C0
S11318C07869FFF703F901E00023FB61FB69002B52
S11318D013D0FA8800230393FB690293FB6A0193F4
S11318E0BB6A00933B68B968F86800F00FF8F869C0
S11318F000F088F80123BB6102E04FF0FF33BB61C5
S1131900BB6918462037BD4680BD000080B586B04F
S113191000AFF860B9607A603B60BB6A1A6B7B68A1
S113192003F18043013B9B0013443B613B6923F07B
S113193007033B613B6903F00703002B04D04FF41A
S11319404E712F4801F03AFA00237B6112E0BA6825
S11319507B6913441978BA6A7B69134434330A46A1
S11319601A70BA687B6913441B78002B06D07B6914
S113197001337B617B69092BE9D900E000BFBB6AB5
S1131980002283F83D203B6A022B01D902233B62EB
S1131990BB6A3A6ADA62BB6A3A6A1A64BB6A0022B0
S11319A05A64BB6A04331846FFF7C1F8BB6A18339C
S11319B01846FFF7BCF8BB6ABA6A1A613B6AC3F1FE
S11319C00302BB6A9A61BB6ABA6A5A62BB6A0022A2
S11319D09A64BB6A002283F84C203A68F968386933
S11319E0FFF736F90246BB6A1A607B6A002B02D005
S11319F07B6ABA6A1A6000BF1837BD4680BD00BF53
S1131A00D46B000080B582B000AF7860FFF7EAF9CC
S1131A102A4B1B680133294A1360294B1B68002B8E
S1131A2009D1274A7B681360244B1B68012B10D112
S1131A3000F0D2FC0DE0234B1B68002B09D1204B96
S1131A401B68DA6A7B68DB6A9A4202D81C4A7B68A4
S1131A5013601D4B1B6801331B4A13607B68DB6AF0
S1131A6001229A40194B1B681343184A13607B6880
S1131A70DA6A13469B0013449B00154A1A447B6898
S1131A80043319461046FFF75EF8FFF7D5F90D4BFE
S1131A901B68002B0ED00A4B1B68DA6A7B68DB6A72
S1131AA09A4207D20B4B4FF080521A60BFF34F8F0C
S1131AB0BFF36F8F00BF0837BD4680BD5826002096
S1131AC0A82500206426002074260020602600201B
S1131AD0AC25002004ED00E080B584B000AF786050
S1131AE00023FB607B68002B11D0104B1B68002B7C
S1131AF004D040F2DC410E4801F060F900F078F9BE
S1131B000021786800F03CFE00F080F9F860FB6882
S1131B10002B07D1074B4FF080521A60BFF34F8F51
S1131B20BFF36F8F00BF1037BD4680BD80260020F5
S1131B30D46B000004ED00E080B584B000AF7860A1
S1131B40FFF750F97B68002B02D1344B1B6800E08F
S1131B507B68FB60FB6804331846FFF74FF80346C5
S1131B60002B15D1FB68DA6A2D4913469B001344F8
S1131B709B000B441B68002B0AD1FB68DB6A012223
S1131B8002FA03F3DA43274B1B681340254A136018
S1131B90FB689B6A002B04D0FB6818331846FFF7D8
S1131BA02DF8FB68043319461F48FEF7CCFFFFF7F6
S1131BB043F91E4B1B68002B05D0FFF713F900F007
S1131BC097FCFFF739F9154B1B68FA689A4221D143
S1131BD0164B1B68002B11D0154B1B68002B04D02F
S1131BE040F26461134801F0E9F8134B4FF080525E
S1131BF01A60BFF34F8FBFF36F8F0BE00A4B1A6865
S1131C000E4B1B689A4203D1044B00221A6001E078
S1131C1000F05CFA00BF1037BD4680BDA825002047
S1131C20AC250020602600204426002064260020E5
S1131C3080260020D46B000004ED00E0582600202C
S1131C4080B584B000AF78600023FB607B68BB6024
S1131C507B68002B04D140F28E61114801F0AEF88C
S1131C60BB685B690F4A934201D1012300E0002362
S1131C70002B0FD0BB689B6A0B4A93420AD0BB6807
S1131C809B6A002B01D1012300E00023002B01D02B
S1131C900123FB60FB6818461037BD4680BD00BFBA
S1131CA0D46B0000442600201826002080B584B0A0
S1131CB000AF78607B68FB607B68002B04D14FF435
S1131CC0D761224801F07AF8FB68002B39D0204B09
S1131CD01B68FA689A4234D0FFF784F8F868FFF773
S1131CE0AFFF0346002B2AD0FB6804331846FEF7E7
S1131CF085FFFB68DB6A01229A40164B1B6813437D
S1131D00144A1360FB68DA6A13469B0013449B0071
S1131D10114A1A44FB68043319461046FEF713FFB0
S1131D20FB68DA6A0A4B1B68DB6A9A4207D30B4BDF
S1131D304FF080521A60BFF34F8FBFF36F8FFFF7DE
S1131D407BF800BF1037BD4680BD00BFD46B0000D8
S1131D50A825002060260020AC25002004ED00E02A
S1131D6080B584B002AF1B4B019300230093002382
S1131D708C2219491948FFF787FD78607B68012B8D
S1131D8002D100F063FD78607B68012B15D14FF020
S1131D90BF0383F31188BFF36F8FBFF34F8F3B6093
S1131DA00F4B4FF0FF321A600E4B01221A600E4B9C
S1131DB000221A60FEF7B8FF08E07B68B3F1FF3F2A
S1131DC004D140F29171094800F0F8FF00BF0837D0
S1131DD0BD4680BD7C260020F06B0000C5230000BA
S1131DE078260020642600205C260020D46B0000A6
S1131DF080B400AF044B1B680133034A136000BF77
S1131E00BD4680BC704700BF8026002080B584B0EA
S1131E1000AF0023FB600023BB603E4B1B68002B1C
S1131E2004D140F2F5713C4800F0C8FFFEF7DAFF38
S1131E30384B1B68013B374A1360364B1B68002B39
S1131E4061D1364B1B68002B5DD02EE0344BDB6830
S1131E50DB68FB60FB6818331846FEF7CFFEFB68AF
S1131E6004331846FEF7CAFEFB68DB6A01229A4077
S1131E702C4B1B6813432B4A1360FB68DA6A134626
S1131E809B0013449B00284A1A44FB6804331946F8
S1131E901046FEF758FEFB68DA6A244B1B68DB6ABF
S1131EA09A4202D3224B01221A601D4B1B68002B5D
S1131EB0CCD1FB68002B01D000F01AFB1D4B1B6832
S1131EC07B607B68002B10D000F046F80346002BA3
S1131ED002D0174B01221A607B68013B7B607B6850
S1131EE0002BF1D1134B00221A60114B1B68002BFD
S1131EF009D00123BB60104B4FF080521A60BFF32E
S1131F004F8FBFF36F8FFEF797FFBB6818461037EC
S1131F10BD4680BD80260020D46B000058260020DA
S1131F201826002060260020AC250020A8250020CB
S1131F306C2600206826002004ED00E080B483B005
S1131F4000AF044B1B687B607B6818460C37BD46AA
S1131F5080BC70475C26002080B586B000AF0023AB
S1131F607B614E4B1B68002B40F087804C4B1B68F9
S1131F7001333B614A4A3B6913603B69002B1AD128
S1131F80484B1B681B68002B04D040F6E6114648FA
S1131F9000F014FF434B1B68FB60444B1B68414A31
S1131FA01360424AFB681360414B1B680133404A8B
S1131FB0136000F09DFA3F4B1B683A699A424DD377
S1131FC0384B1B681B68002B01D1012300E0002360
S1131FD0002B04D0374B4FF0FF321A603EE0314BF8
S1131FE01B68DB68DB68BB60BB685B687B603A6965
S1131FF07B689A4203D22F4A7B6813602EE0BB6849
S113200004331846FEF7FAFDBB689B6A002B04D024
S1132010BB6818331846FEF7F1FDBB68DB6A012282
S11320209A40254B1B681343234A1360BB68DA6A42
S113203013469B0013449B00204A1A44BB68043394
S113204019461046FEF77FFDBB68DA6A1C4B1B6815
S1132050DB6A9A42B4D301237B61B1E7184B1B6856
S1132060DA6A164913469B0013449B000B441B6811
S1132070012B07D901237B6104E0124B1B68013358
S1132080104A1360104B1B68002B01D001237B61A5
S11320907B6918461837BD4680BD00BF80260020E6
S11320A05C26002010260020D46B0000142600209B
S11320B0702600207826002060260020AC25002011
S11320C0A8250020682600206C26002080B584B056
S11320D000AF234B1B68002B03D0224B01221A6054
S11320E039E0204B00221A601F4B1B687B607B6821
S11320F0B3FA83F3FB70FB78C3F11F03FB601B4946
S1132100FA6813469B0013449B000B441B68002B86
S113211004D140F60331164800F050FEFA68134625
S11321209B0013449B00114A1344BB60BB685B686B
S11321305A68BB685A60BB685A68BB6808339A42DD
S113214004D1BB685B685A68BB685A60BB685B684B
S1132150DB68084A136000BF1037BD4680BD00BF6E
S1132160802600206C26002060260020AC2500205C
S1132170D46B0000A825002080B582B000AF786041
S113218039607B68002B04D140F61331084800F015
S113219015FE084B1B68183319467868FEF7F6FCE1
S11321A00121386800F0ECFA00BF0837BD4680BD55
S11321B0D46B0000A825002080B584B000AFF8607F
S11321C0B9607A60FB68002B04D140F63E310C48BC
S11321D000F0F4FD0B4B1B6818331946F868FEF742
S11321E0B2FC7B68002B02D04FF0FF33BB607968F0
S11321F0B86800F0C5FA00BF1037BD4680BD00BF07
S1132200D46B0000A825002080B584B000AF7860AE
S11322107B68DB68DB68BB60BB68002B04D140F6DD
S11322206E31214800F0CAFDBB6818331846FEF72A
S1132230E5FC1E4B1B68002B1CD1BB6804331846FD
S1132240FEF7DCFCBB68DB6A01229A40184B1B6872
S11322501343174A1360BB68DA6A13469B0013449E
S11322609B00144A1A44BB68043319461046FEF70F
S11322706AFC05E0BB68183319460F48FEF763FC97
S1132280BB68DA6A0D4B1B68DB6A9A4205D90123E5
S1132290FB600B4B01221A6001E00023FB60FB682A
S11322A018461037BD4680BDD46B00008026002040
S11322B060260020AC25002018260020A825002038
S11322C06C26002080B582B000AF78607B68002B5C
S11322D004D140F6CE31074800F070FD064B1A6871
S11322E07B681A60054B1A687B685A6000BF083720
S11322F0BD4680BDD46B0000702600205C26002003
S113230080B584B000AF786039607B68002B04D15D
S113231040F6D831224800F051FD3B68002B04D12F
S113232040F6D9311E4800F049FDFEF75BFD1D4B18
S11323301B68BB603B681B68B3F1FF3F02D10023FD
S1132340FB6026E07B681A68174B1B689A4207D02B
S11323507B685B68BA689A4202D30123FB6018E089
S11323607B685B68BA68D21A3B681B689A420ED2D3
S11323703B681A687B685968BB68CB1A1A443B6887
S11323801A607868FFF79EFF0023FB6001E00123D9
S1132390FB60FEF751FDFB6818461037BD4680BD53
S11323A0D46B00005C2600207026002080B400AFAF
S11323B0034B01221A6000BFBD4680BC704700BFBA
S11323C06C26002080B582B000AF786000F044F83D
S11323D002F0C9FFFAE7000080B582B000AF002325
S11323E07B600CE07A6813469B0013449B00124AFE
S11323F013441846FEF77CFB7B6801337B607B68E3
S1132400022BEFD90D48FEF773FB0D48FEF770FB66
S11324100C48FEF76DFB0C48FEF76AFB0B48FEF711
S113242067FB0B4B054A1A600A4B054A1A6000BF4A
S11324300837BD4680BD00BFAC250020E82500203C
S1132440FC250020182600202C26002044260020ED
S1132450102600201426002080B582B000AF28E0AA
S1132460FFF7C6FC174B1B68002B0CBF012300238E
S1132470DBB27B60FFF7CAFC7B68002B19D1FEF747
S1132480B1FC104BDB68DB683B603B6804331846E7
S1132490FEF7B4FB0C4B1B68013B0B4A13600B4B60
S11324A01B68013B094A1360FEF7C6FC386800F05C
S11324B00FF8064B1B68002BD2D100BF0837BD466E
S11324C080BD00BF2C260020582600204026002076
S11324D080B582B000AF78607B681B6B1846FEF74E
S11324E0F5FA7868FEF7F2FA00BF0837BD4680BDFA
S11324F080B483B000AF0E4B1B681B68002B01D166
S1132500012300E00023002B04D00A4B4FF0FF32DC
S11325101A6008E0064B1B68DB68DB687B607B683D
S11325205B68044A136000BF0C37BD4680BC70472B
S1132530102600207826002080B483B000AF0B4B17
S11325401B68002B02D101237B6008E0084B1B6849
S1132550002B02D102237B6001E000237B607B68B7
S113256018460C37BD4680BC704700BF6426002067
S11325708026002080B584B000AF78607B68FB6063
S11325807B68002B62D0FB68DA6A324B1B68DB6A1B
S11325909A425BD2FB689B69002B06DB2D4B1B68C0
S11325A0DB6AC3F10302FB689A61FB685969FB6843
S11325B0DA6A13469B0013449B00274A134499424A
S11325C001D1012300E00023002B3AD0FB6804333F
S11325D01846FEF713FB0346002B15D1FB68DA6A95
S11325E01D4913469B0013449B000B441B68002B9E
S11325F00AD1FB68DB6A012202FA03F3DA43174BC0
S11326001B681340154A1360124B1B68DA6AFB6897
S1132610DA62FB68DB6A01229A40104B1B681343A1
S11326200E4A1360FB68DA6A13469B0013449B004E
S1132630094A1A44FB68043319461046FEF783FA24
S113264004E0044B1B68DA6AFB68DA6200BF1037E7
S1132650BD4680BDA8250020AC25002060260020B2
S113266080B584B000AF78607B68BB600023FB60FA
S11326707B68002B62D0344B1B68BA689A4204D042
S113268040F6D461314800F099FBBB685B6C002BC9
S113269004D140F6D6612D4800F090FBBB685B6C1A
S11326A05A1EBB685A64BB68DA6ABB681B6C9A42E0
S11326B044D0BB685B6C002B40D1BB680433184624
S11326C0FEF79CFA0346002B15D1BB68DA6A204951
S11326D013469B0013449B000B441B68002B0AD138
S11326E0BB68DB6A012202FA03F3DA43194B1B6865
S11326F01340184A1360BB681A6CBB68DA62BB6883
S1132700DB6AC3F10302BB689A61BB68DB6A01221E
S11327109A40104B1B6813430E4A1360BB68DA6A75
S113272013469B0013449B00094A1A44BB680433B4
S113273019461046FEF707FA0123FB60FB681846AA
S11327401037BD4680BD00BFA8250020D46B000013
S1132750AC2500206026002080B400AF074B1B6826
S1132760002B04D0054B1B685A6C01325A64034B8E
S11327701B681846BD4680BC704700BFA8250020D2
S113278080B584B000AF78603960294B1B68FB606A
S1132790284B1B6804331846FEF730FA0346002B17
S11327A00BD1244B1B68DB6A012202FA03F3DA43E0
S11327B0214B1B681340204A13607B68B3F1FF3F31
S11327C00AD13B68002B07D01A4B1B680433194607
S11327D01A48FEF7B8F926E0FA687B681344BB6030
S11327E0144B1B68BA685A60BA68FB689A4209D2EB
S11327F0134B1A680F4B1B68043319461046FEF737
S1132800C5F910E00F4B1A680A4B1B6804331946CC
S11328101046FEF7BBF90C4B1B68BA689A4202D209
S1132820094ABB68136000BF1037BD4680BD00BFB6
S11328305C260020A82500206026002044260020D5
S113284014260020102600207826002080B584B0AD
S113285002AF00237B6000F07BFA0E4B1B68002B59
S11328600AD00D4B01930223009300238C220B49C1
S11328700B48FFF709F878607B68002B04D14FF40C
S1132880A071084800F09AFA7B6818460837BD46DC
S113289080BD00BFB4260020B8260020F86B0000DD
S11328A0B5290000006C000080B588B000AFF86066
S11328B0B9607A603B600023FB61FB68002B04D1A4
S11328C040F2B3111B4800F079FA1B4B1B68002B34
S11328D02AD0BB683B617B687B61FB68BB61BB68DA
S11328E0052B18DCFFF728FE0346022B09D1124BF7
S11328F0186807F110010023BA6AFEF705FCF861B5
S113290012E00D4B186807F1100100230022FEF7B6
S1132910FBFBF86108E0084B186807F1100100237D
S11329203A68FEF7CBFCF861FB6918462037BD46D0
S113293080BD00BF006C0000B426002080B586B0C6
S113294002AF78603960194B1B68DB68DB68FB6099
S1132950FB6804331846FEF751F9FB68DB69012B69
S11329601CD1FB689A697B68D1187B683A68F8685F
S113297000F0C4F80346002B10D00023009300237A
S11329807A680021F868FFF78FFFB860BB68002BF6
S113299004D140F21521064800F010FAFB685B6A86
S11329A0F868984700BF1037BD4680BDAC260020AC
S11329B0006C000080B584B000AF786007F10803B4
S11329C0184600F057F8F860BB681946F86800F03C
S11329D003F800F0D5F8F1E780B584B000AF786073
S11329E03960FFF705FA07F10803184600F066F8A6
S11329F0F860BB68002B30D13B68002B0AD17A68A1
S1132A00FB689A4206D8FFF701FAF9687868FFF77D
S1132A1095FF24E03B68002B08D0134B1B681B6810
S1132A20002B0CBF01230023DBB23B600F4B186863
S1132A307A68FB68D31A3A681946FEF7F1FEFFF785
S1132A40E5F90346002B0AD1094B4FF080521A6076
S1132A50BFF34F8FBFF36F8F01E0FFF7D7F900BFCC
S1132A601037BD4680BD00BFB0260020B42600202C
S1132A7004ED00E080B485B000AF78600E4B1B68B5
S1132A801B68002B0CBF01230023DBB21A467B68B2
S1132A901A607B681B68002B05D1074B1B68DB6839
S1132AA01B68FB6001E00023FB60FB6818461437D9
S1132AB0BD4680BC704700BFAC26002080B584B002
S1132AC000AF7860FFF73AFAF8600B4B1B68FA68BE
S1132AD09A4205D200F0DEF87B6801221A6002E017
S1132AE07B6800221A60044AFB681360FB6818467E
S1132AF01037BD4680BD00BFBC26002080B586B01F
S1132B0000AFF860B9607A603B6000237B61FB68CA
S1132B10BA685A60FB68FA681A61BA687B689A42B4
S1132B2012D87A683B68D21AFB689B699A4202D32E
S1132B3001237B611BE0104B1A68FB6804331946C0
S1132B401046FEF723F812E07A683B689A4206D2F0
S1132B50BA683B689A4202D301237B6107E0074BC2
S1132B601A68FB68043319461046FEF70FF87B69B0
S1132B7018461837BD4680BDB0260020AC2600207C
S1132B8080B58AB002AF71E0BB68002B6DDB3B6996
S1132B90FB61FB695B69002B04D0FB6904331846B5
S1132BA0FEF72CF83B1D1846FFF788FFB861BB6899
S1132BB0092B5BD801A252F823F000BFE52B0000DB
S1132BC0E52B0000E52B00006D2C0000372C0000E5
S1132BD0632C0000E52B0000E52B00006D2C0000A9
S1132BE0372C0000FA68FB699B69D118FB68BA6945
S1132BF0F869FFF783FF0346002B37D0FB695B6A54
S1132C00F8699847FB69DB69012B2FD1FA68FB69E6
S1132C109B691A440023009300230021F869FFF7FD
S1132C2043FE78617B69002B20D140F22E31174896
S1132C3000F0C4F81AE0FA68FB699A61FB699B69C1
S1132C40002B04D140F24531104800F0B7F8FB697D
S1132C509A69BB69D118BB69BA69F869FFF74EFF75
S1132C6004E0F869FDF732FF00E000BF084B186884
S1132C7007F1080100230022FEF79EFB0346002B08
S1132C8082D100BF2037BD4680BD00BF006C00006C
S1132C90B426002080B588B002AF3FE0294B1B6802
S1132CA0DB681B683B61274B1B68DB68DB68FB60E8
S1132CB0FB6804331846FDF7A1FFFB685B6AF868FC
S1132CC09847FB68DB69012B28D1FB689B693A694B
S1132CD01344BB60BA683B699A420ED9FB68BA6870
S1132CE05A60FB68FA681A61164B1A68FB68043369
S1132CF019461046FDF74AFF10E000230093002315
S1132D003A690021F868FFF7CFFD78607B68002BF3
S1132D1004D140F29F310C4800F050F8094B1B6875
S1132D201B68002BBAD1074B1B687B61074B1B68E0
S1132D30044A1360054A7B69136000BF1837BD4617
S1132D4080BD00BFAC260020006C0000B02600202F
S1132D5080B500AFFEF746F8124B1B68002B1DD15F
S1132D601148FDF7C5FE1148FDF7C2FE104B0E4A8F
S1132D701A60104B0D4A1A6000220C210A20FEF73B
S1132D806DF90246074B1A60064B1B68002B05D0F1
S1132D90044B1B6808491846FEF71AFDFEF74CF869
S1132DA000BF80BDB4260020842600209826002081
S1132DB0AC260020B0260020206C000080B483B034
S1132DC000AF78603960FEE780B487B000AFF86088
S1132DD0B9607A60FB6803F10473DA00BB681344DA
S1132DE09B007B617B697A681A6000BF1C37BD4613
S1132DF080BC704780B485B000AF786039607B6870
S1132E0003F10473DA003B6813449B00FB60FB6826
S1132E101B6818461437BD4680BC704780B582B025
S1132E2000AF78607B681F2B04D94FF49671054876
S1132E30FFF7C4FF01227B6802FA03F31846083740
S1132E40BD4680BD286C000080B584B000AF7860BA
S1132E507B68002B03D07B68B3F5004F04D940F6A0
S1132E60C2210748FFF7AAFF7B68B3FA83F3DBB2FA
S1132E70C3F11F03FB60FB6818461037BD4680BDD5
S1132E80906C000080B400AF034BDB6C1B0EDBB214
S1132E901846BD4680BC7047B081E00F80B400AFD7
S1132EA0034BDB6C1B0CDBB21846BD4680BC704781
S1132EB0B081E00F80B582B000AFFFF7EFFF0346AB
S1132EC04A2B04D0792B02D0482B23D024E0174B73
S1132ED01B699BB21B029BB203F47C53FB80134B14
S1132EE09B691B091B0103F0F0039AB2FB8813438F
S1132EF0FB800E4BDB691B0903F00F039AB2FB88BE
S1132F001343FB80FB88B3F5017F01D3084B09E031
S1132F10084B07E0074B05E04FF44A610648FFF70A
S1132F204DFF002318460837BD4680BDD0FF0FE093
S1132F3000366E010048E801F46C000080B584B0EE
S1132F4000AF78600123FB60FFF7B4FF02467B68A3
S1132F50934204D80023FB600023BB600BE0FFF71F
S1132F60A9FF03465B007A689A4202D80123BB603A
S1132F7001E00223BB60FA681E210848FFF724FF22
S1132F80064B5B6823F48072BB681B02034913433E
S1132F904B6000BF1037BD4680BD00BF00800C40B1
S1132FA080B582B000AF1E210448FFF723FF78608C
S1132FB07B6818460837BD4680BD00BF00800C40C2
S1132FC080B582B000AF244B5B6903F4E063B3F5D2
S1132FD0007F1CD0B3F5007F05D8002B25D0B3F5B6
S1132FE0807F1FD02AE0B3F5C06F24D0B3F5E06F23
S1132FF01ED0B3F5407F21D1FFF744FF0346122BC7
S113300002D9164B7B6021E0154B7B601EE0FFF775
S113301039FF0346122B02D9124B7B6016E0124B88
S11330207B6013E0114B7B6010E0114B7B600DE083
S1133030104B7B600AE0104B7B6007E000237B6051
S113304040F622510D48FFF7B9FE00BF7B681846D1
S11330500837BD4680BD00BF00800C40804F120081
S113306040420F0040B56400C0CF6A00C0D8A7003A
S1133070809FD500406F4001003FAB01F46C00001D
S113308080B582B000AF0F4800F056FD0346FB70D8
S1133090FB78072B05D0092B07D1FDF7C1F8786021
S11330A00BE0FFF78DFF786007E000237B6040F6BC
S11330B05C510548FFF782FE00BF7B68184608375D
S11330C0BD4680BD06000E00F46C000080B485B0DF
S11330D000AF78603960204B5B6803F00703FB6046
S11330E0FB68012B01D9042B02D10023FB7202E0FF
S11330F00123FB7200BF7B68184A934207D9FB7A0D
S1133100002B01D0052300E00423FB6016E07B685C
S1133110124A93420BD87B68114A934207D9FB7A2F
S1133120002B01D0032300E00123FB6006E0FB7ABF
S1133130002B01D0022300E00023FB60064B5B68F8
S113314023F007020449FB6813434B6000BF1437A4
S1133150BD4680BC704700BF00000C400048E80139
S11331600024F40080B582B000AF0E4BDB6B002B63
S113317014BF01230023FB710A4B41F67132DA6359
S1133180FDF744F8034600211846FFF79FFFFB793B
S1133190002B02D0034B0022DA6300BF0837BD4680
S11331A080BD00BF00000C4080B584B000AF7860E3
S11331B039600C4BDB6B002B14BF01230023FB7322
S11331C0084B41F67132DA6339687868FFF77EFF9D
S11331D0FB7B002B02D0034B0022DA6300BF1037C5
S11331E0BD4680BD00000C4090B585B000AF78604E
S11331F00023BB607B683B4A934208D03A4A93421F
S113320005D040F69A713948FFF7D8FD00E000BFB9
S1133210786800F091FC0346FB607B68314A934276
S113322003D0314A934206D00CE0314B9B6A03F041
S11332300303FB600CE02E4B9B6A9B0803F0030323
S1133240FB6005E040F6C9712848FFF7B7FD00BFF1
S1133250FB68032B38D801A252F823F09332000004
S11332606D320000753200007D320000FDF770F809
S1133270B86032E0FDF77CF8B8602EE0FCF7ACFFF4
S11332800446FFF78DFE0346013324FA03F3BB60C3
S113329023E00023BB607B68124A934203D07B681F
S11332A0114A934218D1124B9A6A7B680D498B429A
S11332B001D1102300E0142322FA03F3002B0BD0D6
S11332C0FDF74EF8B86007E00023BB6040F6F471E8
S11332D00648FFF773FD00E000BFBB6818461437CB
S11332E0BD4690BD02001E0003002000F46C0000E7
S11332F000800C4080B483B000AF7860094B5B6DF4
S113330003F00103002B07D100BF064B1A6D7B6845
S11333101340002BF9D100E000BF0C37BD4680BC40
S1133320704700BF00800C4080B582B000AF1048E9
S113333000F002FC0346FB70FB78032B07D0092B3B
S113334009D0022B0BD1FDF713F878600AE0FCF7E3
S1133350FFFF786006E0FCF763FF786002E000237B
S11333607B6000BF7B6818460837BD4680BD00BF40
S11333700723260080B400AF00BFBD4680BC704761
S113338080B400AF00BFBD4680BC704790B585B027
S113339000AF78607B681B0903F00F03BB60BB6858
S11333A0013B0C2B00F2B88001A252F823F000BFBD
S11333B0E53300001935000019350000F53300002D
S11333C019350000193500000934000037340000B5
S11333D0CD340000193500001935000019350000FE
S11333E01D340000534B1B689B0B03F00703013390
S11333F0FB6099E04F4B9B6803F00F03FB60F86898
S1133400FFF70CFDF8608FE04A4B5B6803F00F0395
S1133410FB60F868FFF702FDF86085E0454B5B68E8
S11334201B0A03F00103FB60FB6801331846FFF736
S1133430F5FCF86078E07B683F4A934218D03E4A36
S1133440934203D83D4A934207D036E03C4A934224
S113345019D03C4A934226D02FE0364B9B6E1B0971
S113346003F00F03FB60F868FFF7D8FCF8602CE06A
S1133470304B9B6E1B0A03F00F03FB60F868FFF7E9
S1133480CDFCF86021E02B4B9B6E1B0B03F0030477
S11334901020FFF7D9FC03462344FB60F868FFF7CC
S11334A0BDFCF86011E0234B9B6E03F00303FB604B
S11334B0F868FFF7B3FCF86007E00123FB6041F212
S11334C0B8212148FFF77AFC00BF2DE07B681F4A32
S11334D0934203D01E4A93420AD014E0154B1B6F4B
S11334E003F00303FB60F868FFF798FCF86012E050
S11334F0104B1B6F1B0903F00303FB60F868FFF715
S11335008DFCF86007E00123FB6041F2D1210E48F5
S1133510FFF754FC00BF07E00123FB6041F2D82110
S11335200948FFF74BFC00BFFB6818461437BD463B
S113353090BD00BF00800C4080261600801612004B
S113354080002A0080062E00F46C000090071A0008
S113355090171C0090B585B000AF786039607B6827
S11335601B0903F00F03FB60FB68013B0C2B00F20B
S1133570598101A252F823F0AD350000253800002E
S113358025380000EB350000253800002538000000
S11335903D36000099360000A537000025380000AC
S11335A025380000253800001D3600003B68002B3C
S11335B002D03B68082B04D941F205319E48FFF73D
S11335C0FDFBFFF7CFFD9D4B1B6823F4E0323B6806
S11335D0013B9B03994913430B60FCF7FDFDB86065
S11335E00021B868FFF7E0FD22E13B68002B03D01F
S11335F03B68B3F5007F04D941F218318E48FFF7D8
S1133600DDFB3868FFF720FC38608C4B9B6823F0A7
S11336100F028A493B6813438B6009E13868FFF75E
S113362013FC0346013B3B60844B5B6823F48072CC
S11336303B681B02814913434B60F9E03B68002B54
S113364003D03B68B3F5007F04D941F22E317A48A8
S1133650FFF7B4FBFFF786FDFCF7BEFD02463B68AF
S1133660B2FBF3F31846FFF769FC3868FFF7ECFB8D
S11336703860724B5B6823F00F0270493B68134358
S11336804B60FCF7A9FDB8600021B868FFF78CFD1A
S1133690B868FFF753FCCBE07B68694A934227D0B4
S11336A0674A934203D8674A934207D073E0664A55
S11336B0934237D0654A934255D06CE03B68B3F5EA
S11336C0004F04D941F24C315B48FFF777FB0420EB
S11336D0FFF710FE3868FFF7B7FB3860574B9B6E57
S11336E023F0F0023B681B01544913438B6658E0F6
S11336F03B68B3F5004F04D941F25A314E48FFF705
S11337005DFB0420FFF7F6FD3868FFF79DFB38608A
S11337104A4B9B6E23F470623B681B024749134378
S11337208B663EE03B680F2B02D93B68802B04D9A3
S113373041F269314048FFF741FB0420FFF7DAFD0D
S11337403868FFF781FB38603C4B9B6E23F4405490
S11337501020FFF779FB02463B689B1A1B03374A8C
S1133760234393661DE03B68082B04D941F2793169
S11337703148FFF723FB0420FFF7BCFD3868FFF74F
S113378063FB38602D4B9B6E23F003022B493B688F
S113379013438B6605E041F287312748FFF70EFBA0
S11337A000BF45E07B682A4A934203D0294A9342EA
S11337B018D030E03B68082B04D941F290311E4800
S11337C0FFF7FCFA4020FFF795FD3868FFF73CFB54
S11337D038601A4B1B6F23F0030218493B681343EC
S11337E00B671EE03B68082B04D941F29F31124855
S11337F0FFF7E4FA4020FFF77DFD3868FFF724FB6C
S113380038600E4B1B6F23F030023B681B010B49E1
S113381013430B6705E041F2AD310748FFF7CEFAD9
S113382000BF05E041F2B3310348FFF7C7FA00BF18
S113383000BF1437BD4690BDF46C000000800C40FE
S1133840802616008016120080002A0080062E00B2
S113385090071A0090171C0080B586B000AF7860FE
S11338600B46FB7000233B617B681B0A03F00F03CC
S1133870013B092B32D801A252F823F0B7380000DB
S1133880BD380000A5380000DD380000DD38000038
S1133890C3380000CD380000DD380000DD380000FA
S11338A0D73800001A4B7B61FCF796FC0346184698
S11338B0FFF744FB18E0174B7B6115E0164B7B6167
S11338C012E0164B7B6101233B610DE0144B7B61DD
S11338D010233B6108E0134B7B6105E041F2394161
S11338E01148FFF76BFA10E07B681B0B03F01F0312
S11338F0FB603B69002B02D03869FFF7FBFCFB78C7
S11339001A46F9687869FFF75FFA1837BD4680BD33
S113391040800C4008800C4044800C4058800C408F
S113392060800C4078800C40F46C000090B585B049
S113393000AF78607B6803F47813B3F5D01F00F010
S1133940B480B3F5D01F1AD8B3F5602F00F0C88047
S1133950B3F5602F08D8B3F5003F45D0B3F5802FF9
S113396036D0002B30D0D2E0B3F5901F45D0B3F55C
S1133970B01F50D0B3F5801F00F0B680C7E0B3F598
S1133980181F00F0B580B3F5181F0BD8B3F5F01F5E
S11339902ED0B3F5001F00F08380B3F5E01F00F0D4
S11339A09180B4E0B3F5301F56D0B3F5301F03D87F
S11339B0B3F5281F3DD0AAE0B3F5381F63D0B3F5A3
S11339C0781F00F09980A2E0FCF72AFCF860A6E0DA
S11339D0FCF726FCF860544B9B6803F00F03FA686D
S11339E022FA03F3FB609AE0FCF7F6FBF86096E03A
S11339F04E48FFF7F9FBF86091E04C48FFF7F4FB01
S1133A00F860494B9B6E1B0903F00F03FA6822FA16
S1133A1003F3FB6083E04548FFF7E6FBF860424BA5
S1133A209B6E1B0A03F00F03FA6822FA03F3FB6090
S1133A3075E03E48FFF7D8FBF8603B4B9B6E1B0BD1
S1133A4003F003041020FFF7FFF903462344FA6848
S1133A5022FA03F3FB6062E03448FFF7C5FBF86029
S1133A60314B9B6E1B0B03F00303FA6822FA03F33A
S1133A70FB602D4BDB6F03F007030133FA68B2FBE5
S1133A80F3F3FB604BE02948FFF7AEFBF860264BED
S1133A909B6E03F00303FA6822FA03F3FB603EE033
S1133AA02348FFF7A1FBF86039E02148FFF79CFBAE
S1133AB0F8601D4B1B6F03F00303FA6822FA03F34B
S1133AC0FB602CE01A48FFF78FFBF860164B1B6F66
S1133AD01B0903F00303FA6822FA03F3FB601EE0F8
S1133AE0FFF7CEFAF8601AE0FFF76AFAF86016E01A
S1133AF0FFF71AFCF86012E0FCF76EFB04467868E6
S1133B00FFF744FC0346B4FBF3F3FB6007E0002338
S1133B10FB6041F269510748FFF750F900BFFB68A9
S1133B2018461437BD4690BD00800C4002001E00AC
S1133B3003002000F46C000080B584B000AF78600E
S1133B400123FB737B6803F00F03BB60BB68013B7D
S1133B50062B00F2938001A252F823F0793B000077
S1133B60AF3B0000EB3B00007D3C00007D3C0000CF
S1133B70273C0000493C0000474BDB6A03F47053C8
S1133B80B3F5805F09D0B3F5005F03D0B3F5006FE0
S1133B9006D008E00223FB7308E00323FB7305E06F
S1133BA00423FB7302E00523FB7300BF6EE03A4B72
S1133BB09B6A03F00303022B06D0032B07D0012BCF
S1133BC008D10323FB730FE00223FB730CE00623ED
S1133BD0FB7309E0304B9B6A03F48033002B02D063
S1133BE00A23FB7300E000BF50E02B4B9B6A03F0F9
S1133BF00C03082B06D00C2B07D0042B08D103236D
S1133C00FB730FE00223FB730CE00623FB7309E054
S1133C10214B9B6A03F48013002B02D00A23FB730D
S1133C2000E000BF32E01C4B1B6803F08053002B04
S1133C3003D0B3F1805F03D028E00723FB7302E0D5
S1133C400923FB7300BF21E0134BDB6A03F46033E9
S1133C50B3F5803F08D0B3F5003F08D0B3F5004F6B
S1133C6008D10923FB7308E00223FB7305E0032357
S1133C70FB7302E00123FB7300BF07E00023FB7327
S1133C8041F689110548FFF799F800BFFB7B1846F8
S1133C901037BD4680BD00BF00800C40F46C0000AE
S1133CA080B588B000AF78600B46FB700323FB61DE
S1133CB00323FB7600233B617B6803F00F03FB6067
S1133CC0FB68013B062B00F2438101A252F823F06A
S1133CD0ED3C0000DB3D0000DB3D0000513F0000F7
S1133CE0513F0000A93E0000DF3E0000FB78023B8C
S1133CF0082B52D801A252F823F000BF213D000046
S1133D002B3D0000353D0000773D00009B3D000049
S1133D109B3D00009B3D00009B3D00008F3D00004B
S1133D200423FB610023FB763DE00323FB610123B5
S1133D30FB7638E00223FB610223FB76FFF7BAF837
S1133D40034601331846FFF7F9F8FCF7E9FA02468F
S1133D50844B9A4206D9844B1B68834A43F0600320
S1133D60136020E0804B1B6823F060037E4A43F01D
S1133D702003136017E00123FB610323FB76FFF7A5
S1133D8099F8034601331846FFF7D8F80BE041F6DB
S1133D904A217648FFF712F8E0E041F64F217348D4
S1133DA0FFF70CF8DAE0FB7E01220121184600F04F
S1133DB009F9FFF7D7F9FFF7DDFA6B4AFB6953629C
S1133DC0FCF70AFAB860B868FFF7B8F80021B868D9
S1133DD0FFF7EAF9FFF7D4FAC0E0FB78013B092BBF
S1133DE03CD801A252F823F0113E0000173E000017
S1133DF0273E00005D3E00005D3E0000373E0000AF
S1133E005D3E00005D3E00005D3E0000533E00004C
S1133E1000237B6128E001220121002000F0D2F878
S1133E2002237B6120E001220121012000F0CAF875
S1133E3001237B6118E0FCF7CFF9B860B868FFF79D
S1133E407DF8012204214A48FEF7BEFF03237B616B
S1133E500AE000237B6101233B6105E041F6F82180
S1133E604248FEF7ABFF79E0FB68022B0DD13E4BD5
S1133E709B6A23F4803323F003037A691A433B6972
S1133E801B04394913438B6268E0374B9B6A23F464
S1133E90801323F00C037A6992001A433B691B05D3
S1133EA0314913438B6259E0FB78072B02D0092B6D
S1133EB007D00DE02C4B1B682B4A23F08053136072
S1133EC00CE0294B1B68284A43F08053136005E03B
S1133ED041F653312548FEF771FF3FE03EE0FB78A1
S1133EE0032B13D0092B21D0022B2AD1012201212B
S1133EF0002000F067F81C4B40225A6200BF1A4BA6
S1133F00DB6A03F48033002BF9D020E00122012185
S1133F10012000F057F8144B60225A6200BF124B84
S1133F20DB6A03F40033002BF9D010E00E4B20229F
S1133F305A6200BF0C4BDB6A03F40043002BF9D038
S1133F4005E041F692310948FEF738FF06E005E046
S1133F5041F688410548FEF731FF00BF2037BD46D2
S1133F6080BD00BF0048E80100800C40F46C0000F4
S1133F7040800C4080B582B000AF78607B68802BB5
S1133F8004D941F6D8710D48FEF718FF0C4B9B6D10
S1133F9003F00803002B0CD17B6803F007037B605C
S1133FA0074BDB6F23F0070205497B681343CB679C
S1133FB000E000BF0837BD4680BD00BFF46C0000C0
S1133FC000800C4080B586B000AF0346FB710B4601
S1133FD0BB7113467B71FB79042B32D801A252F8D2
S1133FE023F000BF314000002340000007400000E0
S1133FF0F93F00001540000001233B610223FB60F0
S113400001237B6123E004233B610823FB6003233A
S11340107B611CE010233B612023FB6005237B6153
S113402015E040233B618023FB6007237B610EE0A6
S11340304FF480733B614FF40073FB6009237B6191
S113404005E042F28E010E48FEF7B8FE14E0BB799B
S1134050002B0ED00B4A3B6913627B79002B0BD0EB
S113406000BF79690848FEF7C5FE0346002BF8D067
S113407002E0044AFB6813621837BD4680BD00BFE6
S1134080F46C000000800C402C800C4080B483B0A1
S113409000AFEFF310833B603B687B6072B67B68D4
S11340A018460C37BD4680BC704780B483B000AF5F
S11340B078607B68002B00D162B600BF0C37BD4628
S11340C080BC704780B500AFFCF786F800BF80BDA8
S11340D080B400AF034B4AF6E8529A6000BFBD4675
S11340E080BC704700600C4080B400AF034B0022DA
S11340F0C3F8842000BFBD4680BC704700800C40DC
S113410080B400AF044B45F60E02C3F8842000BF10
S1134110BD4680BC704700BF00800C4080B584B0B1
S113412000AF0346FB71FB79002B0BD12B4BDB6AF1
S11341302B4A13601120FFF7FFFC03461A46294B54
S11341401A7047E0254BD3F8843003F00103FB6079
S1134150FFF7D6FF0023BB60214B1B6803F001036C
S1134160BA681343BB601E4B1B6803F01003BA68A4
S11341701343BB601A4B1B6803F04003BA68134334
S1134180BB60174B1B6803F00403BA681343BB609E
S1134190134B1B6803F48073BA681343BB600F4A64
S11341A0BB6813620F4B1B78052B05D00D4B1B7896
S11341B019461120FFF774FD094B1B6803F0010336
S11341C0002B02D1054B02221A62FB68002B01D09E
S11341D0FFF78AFF00BF1037BD4680BD00800C404A
S11341E0C0260020C426002080B483B000AF174B43
S11341F01B699BB21B029BB203F47C53FB80134BE1
S11342009B691B091B0103F0F0039AB2FB8813435B
S1134210FB800E4BDB691B0903F00F039AB2FB888A
S11342201343FB80FB88B3F5827F03D3FB88B3F58C
S1134230017F01D1012300E0002303F00103DBB27D
S113424018460C37BD4680BC704700BFD0FF0FE056
S113425080B400AF00BFBD4680BC704780B400AFDF
S113426000BFBD4680BC704780B586B000AF034632
S1134270FB71FB79002B02D00020FFF74FFF1F4B8F
S11342801B691E4A43F004031361FFF7ADFF0346A5
S1134290FB75FB7D002B11D0194B1A68194B134089
S11342A0FB60174AFB68C2F88030154B5B6823F04B
S11342B046033B61124A3B69C2F88430FFF7C8FFEA
S11342C030BFFFF7CBFFFB7D002B05D00C4AFB680A
S11342D013600B4A3B695360FB79002B02D0012029
S11342E0FFF71CFFFB7983F00103DBB2002B01D045
S11342F0FFF7E8FE00BF1837BD4680BD00ED00E0C3
S113430000E100E09CF1FD0080B586B000AF0346FB
S1134310FB71FB79002B02D00020FFF7FFFE284B36
S1134320D3F8843003F001037B61FFF7E9FE244BEB
S11343304FF420721A627B69002B01D0FFF7D4FE80
S1134340204B1B691F4A43F004031361FFF74CFF22
S11343500346FB74FB7C002B11D01B4B1A681B4BD0
S11343601340BB60184ABB68C2F88030164B5B68C8
S113437023F04603FB60144AFB68C2F88430FFF75D
S113438067FF30BFFFF76AFFFB7C002B05D00E4AA6
S1134390BB6813600C4AFB685360FB79002B02D0A6
S11343A00120FFF7BBFEFB7983F00103DBB2002B96
S11343B001D0FFF787FE00BF1837BD4680BD00BFA0
S11343C000800C4000ED00E000E100E09CF1FD0005
S11343D080B500AF0020FFF7A1FE00BF80BD80B50F
S11343E000AF0120FFF79AFE00BF80BD80B584B006
S11343F000AF124B1B6823F00C0343F00803BB60AF
S11344000E4B1B6843F00C037B60FFF761FE002337
S1134410FB6008E0094ABB681360084A7B681360C4
S1134420FB680133FB60FB68032BF3DD034ABB68C5
S1134430136000BF1037BD4680BD00BF00600C4054
S113444080B582B000AF03463960FB71FB79002B65
S11344501FD0FB79012B19D0FB79022B13D0FB79E8
S1134460032B0DD0FB79042B07D0FB79052B02D14C
S113447041F6FF730FE000230DE04FF6FF730AE0EF
S11344804FF6FF7307E04FF6FF7304E04FF6FF7338
S113449001E04FF6FF733A68134103F00103002B68
S11344A004D14FF477710A48FEF788FC01223B6877
S11344B002FA03F30749FA7918461346DB0013445A
S11344C09B000B441433186000BF0837BD4680BD01
S11344D0086D00000060004080B582B000AF034664
S11344E03960FB71FB79002B1FD0FB79012B19D0AC
S11344F0FB79022B13D0FB79032B0DD0FB79042B12
S113450007D0FB79052B02D141F6FF730FE000239E
S11345100DE04FF6FF730AE04FF6FF7307E04FF626
S1134520FF7304E04FF6FF7301E04FF6FF733A6840
S1134530134103F00103002B04D140F20B410A485C
S1134540FEF73CFC01223B6802FA03F30749FA79BF
S113455018461346DB0013449B000B4410331860C9
S113456000BF0837BD4680BD086D000000600040F4
S113457080B584B000AFB9607B600346FB7313461B
S1134580BB73FB7B002B1FD0FB7B012B19D0FB7B68
S1134590022B13D0FB7B032B0DD0FB7B042B07D00A
S11345A0FB7B052B02D141F6FF730FE000230DE0E6
S11345B04FF6FF730AE04FF6FF7307E04FF6FF7301
S11345C004E04FF6FF7301E04FF6FF73BA6813413E
S11345D003F00103002B04D140F21B113948FEF70C
S11345E0EDFBBB7B002B0DD07B68002B05D0FB7B48
S11345F0B9681846FFF770FF04E0FB7BB9681846FA
S1134600FFF71EFFBB68072B20D82F49FA7B134600
S1134610DB0013449B000B4404331A68BB689B0003
S11346200F2101FA03F3DB431340B97BBA6892000C
S113463001FA02F211462448FA7B19431346DB00BF
S113464013449B0003440433196025E01E49FA7B9C
S11346501346DB0013449B000B4408331A68BB6801
S113466003F18043083B9B000F2101FA03F3DB4372
S113467002EA0301BA7BBB6803F18043083B9B0059
S113468002FA03F31048FA7B19431346DB00134480
S11346909B00034408331960BB7B002B0DD17B685E
S11346A0002B05D0FB7BB9681846FFF715FF04E023
S11346B0FB7BB9681846FFF7C3FE00BF1037BD4641
S11346C080BD00BF6C6D00000060004080B483B00A
S11346D000AF0346FB71FB79002B06D0084B1B6827
S11346E0074A43F00103136005E0054B1B68044AC5
S11346F023F00103136000BF0C37BD4680BC704734
S113470000A0084080B487B000AFF860B9607A6058
S1134710FB6803F10473DA00BB6813449B007B61FC
S11347207B697A681A6000BF1C37BD4680BC70473D
S113473080B584B000AF78601E4B5B68FB607B681B
S1134740002B03D145211C48FEF738FB0020FFF75E
S1134750BDFFFB6823F4830323F01F03FB607B6826
S11347605B68FA681343FB607B681B7A1A46FB6834
S11347701343FB607B685B7A1A46FB681343FB6058
S11347807B68DB68FA681343FB607B681B8A1A4604
S1134790FB681343FB60074AFB6853607B681B7824
S11347A0002B02D00120FFF791FF00BF1037BD4658
S11347B080BD00BF00A00840806D000080B485B0BB
S11347C000AF78600D4B5B68FB60FB6823F48033BB
S11347D0FB607B68002B08D0B3F5803F00D005E078
S11347E0FB6843F48033FB6000E000BF034AFB68CE
S11347F0536000BF1437BD4680BC704700A008401A
S113480080B483B000AF03460A46FB8013467B7135
S11348107B79002B06D0094B9A68FB880749134320
S11348208B6006E0054B9A68FB88DB430349134021
S11348308B6000BF0C37BD4680BC704700A00840A9
S113484080B584B000AFF860B9601346FB71FB68B3
S1134850072B04DD40F217116548FEF7AFFABB6879
S1134860272B04DD4FF48F716148FEF7A7FAFB682C
S1134870072B00F2B38001A252F823F09D480000F8
S1134880C5480000ED480000154900003D490000FE
S1134890654900008D490000B5490000BB681F2B25
S11348A006DCBB68FA7919465248FFF72BFF9BE0F8
S11348B0BB68203BBB60BB68FA7919464E48FFF7DA
S11348C021FF91E0BB681F2B06DCBB68FA7919460F
S11348D04A48FFF717FF87E0BB68203BBB60BB6813
S11348E0FA7919464648FFF70DFF7DE0BB681F2B98
S11348F006DCBB68FA7919464248FFF703FF73E008
S1134900BB68203BBB60BB68FA7919463E48FFF799
S1134910F9FE69E0BB681F2B06DCBB68FA7919460F
S11349203A48FFF7EFFE5FE0BB68203BBB60BB6823
S1134930FA7919463648FFF7E5FE55E0BB681F2BA8
S113494006DCBB68FA7919463248FFF7DBFE4BE018
S1134950BB68203BBB60BB68FA7919462E48FFF759
S1134960D1FE41E0BB681F2B06DCBB68FA7919460F
S11349702A48FFF7C7FE37E0BB68203BBB60BB6833
S1134980FA7919462648FFF7BDFE2DE0BB681F2BB8
S113499006DCBB68FA7919462248FFF7B3FE23E028
S11349A0BB68203BBB60BB68FA7919461E48FFF719
S11349B0A9FE19E0BB681F2B06DCBB68FA7919460F
S11349C01A48FFF79FFE0FE0BB68203BBB60BB6843
S11349D0FA7919461648FFF795FE05E04FF4C471BD
S11349E00348FEF7EBF900BF00BF1037BD4680BD9A
S11349F0806D000040A0084050A0084044A008403A
S1134A0054A0084048A0084058A008404CA00840C2
S1134A105CA00840CCA00840B4A00840D0A0084046
S1134A20B8A00840D4A00840BCA00840D8A00840C2
S1134A30C0A0084080B586B000AFF860B9607A6065
S1134A40FB68072B04DD40F2A1115E48FEF7B6F9BE
S1134A50FB68072B00F2AC8001A252F823F000BFE0
S1134A60814A0000A54A0000C94A0000ED4A00003E
S1134A70114B0000394B0000614B0000894B0000D2
S1134A80514B1B6C7B61BB68DB437A6913407B61D0
S1134A90BA687B6813407A6913437B614A4A7B692D
S1134AA013648BE0484B5B6C7B61BB68DB437A69C6
S1134AB013407B61BA687B6813407A6913437B6156
S1134AC0414A7B69536479E03F4B9B6C7B61BB68D3
S1134AD0DB437A6913407B61BA687B6813407A6967
S1134AE013437B61384A7B69936467E0364BDB6C24
S1134AF07B61BB68DB437A6913407B61BA687B687E
S1134B0013407A6913437B612F4A7B69D36455E070
S1134B102D4BD3F8CC307B61BB68DB437A691340FF
S1134B207B61BA687B6813407A6913437B61264AC8
S1134B307B69C2F8CC3041E0234BD3F8D0307B61A1
S1134B40BB68DB437A6913407B61BA687B681340B6
S1134B507A6913437B611C4A7B69C2F8D0302DE02B
S1134B60194BD3F8D4307B61BB68DB437A691340BB
S1134B707B61BA687B6813407A6913437B61124A8C
S1134B807B69C2F8D43019E00F4BD3F8D8307B617D
S1134B90BB68DB437A6913407B61BA687B68134066
S1134BA07A6913437B61084A7B69C2F8D83005E00F
S1134BB040F2E1110348FEF701F900BF00BF1837C6
S1134BC0BD4680BD806D000000A0084080B586B061
S1134BD000AFF860B9607A60FB68072B04DD40F22F
S1134BE0F9115C48FEF7EAF8FB68072B00F2AC8089
S1134BF001A252F823F000BF194C00003D4C000004
S1134C00614C0000854C0000A94C0000D14C000010
S1134C10F94C0000214D00004F4B1B6D7B61BB68BC
S1134C20DB437A6913407B61BA687B6813407A6915
S1134C3013437B61484A7B69136586E0464B5B6D91
S1134C407B61BB68DB437A6913407B61BA687B682C
S1134C5013407A6913437B613F4A7B69536574E06F
S1134C603D4B9B6D7B61BB68DB437A6913407B6181
S1134C70BA687B6813407A6913437B61364A7B695F
S1134C80936562E0344BDB6D7B61BB68DB437A691F
S1134C9013407B61BA687B6813407A6913437B6174
S1134CA02D4A7B69D36550E02B4BD3F8B4307B613C
S1134CB0BB68DB437A6913407B61BA687B68134045
S1134CC07A6913437B61244A7B69C2F8B4303CE0BF
S1134CD0214BD3F8B8307B61BB68DB437A6913405E
S1134CE07B61BA687B6813407A6913437B611A4A13
S1134CF07B69C2F8B83028E0174BD3F8BC307B612D
S1134D00BB68DB437A6913407B61BA687B681340F4
S1134D107A6913437B61104A7B69C2F8BC3014E0A2
S1134D200D4BD3F8C0307B61BB68DB437A69134019
S1134D307B61BA687B6813407A6913437B61064AD6
S1134D407B69C2F8C03000E000BF00BF1837BD4621
S1134D5080BD00BF806D000000A0084080B483B017
S1134D6000AF7860064B5B6823F4E01204497B686B
S1134D7013434B6000BF0C37BD4680BC704700BF77
S1134D8000A0084080B483B000AF78600B46FB708D
S1134D90FB7843F01003DBB21A467B689A6500BFC8
S1134DA00C37BD4680BC704780B586B000AFF86054
S1134DB0B9607A60FB707B68002B04D14FF4957165
S1134DC04448FDF7FBFFBB68002B03D14248FEF7C4
S1134DD0ADFDB860FB78202B16D0202B02DC002B15
S1134DE005D03BE0402B1CD0602B2AD036E0BB68BA
S1134DF01B097A689A4204D94FF4AE713548FDF71D
S1134E00DDFF10237B612FE0BB68DB087A689A42E0
S1134E1004D940F261112F48FDF7D0FF08237B61CC
S1134E2022E0BB682D4AA2FB03239B087A689A42BE
S1134E3004D94FF4B3712748FDF7C0FF06237B6103
S1134E4012E0BB689B087A689A4204D940F26B115D
S1134E502048FDF7B3FF04237B6105E040F27111A4
S1134E601C48FDF7ABFF32E0BB689A007B697968A8
S1134E7001FB03F35B0813443B617B697A6802FB23
S1134E8003F33A69B2FBF3F33B613B69043B3B61D7
S1134E903B699B013B613B69114A934204D940F24F
S1134EA087110C48FDF78AFF3A690D4B13403B61AB
S1134EB0FB681B6823F06002FB681A60FB681A68D1
S1134EC0FB781A43FB681A60FB683A695A61183721
S1134ED0BD4680BD946D000040810400ABAAAAAA1F
S1134EE0C0FF1F0080B582B000AF786039607B6876
S1134EF02A4A934214D07B68294A934210D07B6893
S1134F00284A93420CD07B68274A934208D07B6896
S1134F10264A934204D040F2D7212548FDF74EFF9C
S1134F20786800F047F83B689B7C002B05D07B68D1
S1134F301B6843F080427B681A603B68DB7C002B73
S1134F4005D03B681B7D19467868FFF71BFF3B685B
S1134F505B7B1A463B681B8A13433A68D2891A431F
S1134F607B685A603B6859683B689A683B681B7B5E
S1134F707868FFF719FF3B685B7D002B05D07B68E1
S1134F801B6843F480327B681A603B681B781A46BE
S1134F907B68DA6000BF0837BD4680BD00C00040B2
S1134FA000C4004000C8004000E0004000E40040AD
S1134FB0946D000080B582B000AF78607B68264AAB
S1134FC0934214D07B68254A934210D07B68244ACC
S1134FD093420CD07B68234A934208D07B68224AD0
S1134FE0934204D040F206412048FDF7E7FE7B6877
S1134FF040F6AA62DA607B6800221A607B6841F29C
S113500005025A607B6800229A607B6800225A611C
S11350107B680022DA647B6841F6F9729A647B68E3
S113502000225A657B680C4A934202D17B680022B5
S11350301A657B6800229A657B68084A934203D00C
S11350407B68074A934202D17B680022DA6500BF7D
S11350500837BD4680BD00BF00C0004000C400400A
S113506000C8004000E0004000E40040946D0000EF
S113507080B483B000AF786000BF7B681B6903F025
S11350808003002BF9D07B68DB69DBB218460C3750
S1135090BD4680BC704780B483B000AF78600B46D7
S11350A0FB7000BF7B681B6903F04003002BF9D041
S11350B0FA787B685A6300BF0C37BD4680BC7047E2
S11350C080B483B000AF00237B6002E07B680133CF
S11350D07B607B6849F63E429342F7DD00BF0C37A4
S11350E0BD4680BC7047000080B483B000AF034667
S11350F0FB710B46BB7113467B71BB79613B102B73
S113510000F2DB8001A252F823F000BF51510000ED
S11351106B510000855100009F510000B9510000FF
S1135120D3510000ED5100001F520000BB5200009B
S11351303952000053520000BB520000BB52000021
S11351406D520000BB52000087520000A1520000C3
S1135150FA797B7903F00103D8B25B4911F8123074
S113516060F3000301F81230A8E0FA797B7903F0C8
S11351700103D8B2544911F8123060F3410301F825
S113518012309BE0FA797B7903F00103D8B24E49DF
S113519011F8123060F3820301F812308EE0FA79CC
S11351A07B7903F00103D8B2474911F8123060F358
S11351B0C30301F8123081E0FA797B7903F001032B
S11351C0D8B2414911F8123060F3041301F81230D7
S11351D074E0FA797B7903F00103D8B23A4911F803
S11351E0123060F3451301F8123067E0FA797B79E5
S11351F003F00103D8B2344911F8123060F3861376
S113520001F81230FB797A7902F00102D1B22E4A08
S11352105B0013445A7861F382025A704EE0FA79C3
S11352207B7903F00103D8B2274911F8123060F3F7
S1135230C71301F8123041E0FB797A7902F00102D8
S1135240D1B2214A5B0013445A7861F300025A70C8
S113525034E0FB797A7902F00102D1B21A4A5B0098
S113526013445A7861F341025A7027E0FB797A7942
S113527002F00102D1B2144A5B0013445A7861F37C
S1135280C3025A701AE0FB797A7902F00102D1B2B2
S11352900D4A5B0013445A7861F304125A700DE00E
S11352A0FB797A7902F00102D1B2074A5B00134418
S11352B05A7861F345125A7000E000BF00BF0C3702
S11352C0BD4680BC704700BF2827002080B582B04F
S11352D000AF0023FB7107E0FB7900211846FBF7C0
S11352E0B9FAFB790133FB71FB79072BF4D900BFC1
S11352F00837BD4680BD80B582B000AF0023FB7186
S113530007E0FB7901211846FBF7A4FAFB79013386
S1135310FB71FB79072BF4D900BF0837BD4680BD6C
S113532080B500AFFFF7E7FFFFF7CAFEFFF7CEFF38
S1135330FFF7C6FE00BF80BD80B582B000AF00237A
S1135340FB7109E0FB7901211846FBF783FAFFF7AB
S1135350B7FEFB790133FB71FB79072BF2D900BF50
S11353600837BD4680BD80B500AFFBF7ADFA00BF7E
S113537080BD000080B483B000AF0346FB7197F991
S11353800730002B0BDBFB7903F01F02064997F96A
S113539007305B09012000FA02F241F8232000BF24
S11353A00C37BD4680BC704700E100E080B483B098
S11353B000AF0346FB7197F90730002B0CDBFB7938
S11353C003F01F02074997F907305B09012000FA2F
S11353D002F2603341F8232000BF0C37BD4680BC85
S11353E0704700BF00E100E080B483B000AF786094
S11353F039607B683A689A6400BF0C37BD4680BC4C
S1135400704780B483B000AF786039607B68DA6C31
S11354103B681A437B68DA6400BF0C37BD4680BC26
S113542070470000B0B586B000AF264B5B6C254AD0
S113543043F4005353640123042207210520FFF79A
S113544097F801212048FEF707FA01211F48FEF7CB
S113545003FA1F4B3C461D460FCD0FC495E80300CD
S113546084E803003B4619461A48FFF73BFD012335
S1135470042200210420FFF77BF8002301220121EC
S11354800420FFF775F8134B5B6D124A43F48073E5
S11354905365104B5B6D0F4A43F0030353650421BE
S11354A00C48FFF7A1FF04210A48FFF7AAFF1420C4
S11354B0FFF77CFF1420FFF75DFF00BF1837BD46E0
S11354C0B0BD00BF00800C400032040000D20400D4
S11354D0A86D000000E0004080B500AF0020FBF79D
S11354E035F8FAF789FFFFF79DFF00F057FCFCF74A
S11354F037FC0023184680BD80B500AF0A4B01225B
S11355001A700A48FFF7B4FD03461A46084B1A708E
S1135510074B1B7819460548FFF7BDFD04210348D6
S1135520FFF762FF00BF80BDF829002000E00040C3
S1135530002A002080B400AF2E4B5B78002B55D09E
S11355402C4B5B78013BDAB22A4B5A70294B5B78BF
S1135550022B03D0274B5B78002B47D1254B1A78BD
S1135560254BA3FB021399080B469B000B44D31A4B
S1135570DBB2012B16D805E01E4B1B780133DAB2DF
S11355801C4B1A701B4B1B7819461A4B5B78184638
S11355901A4A0B469B000B44034412F82330DBB237
S11355A0782BE9D0134B1A78134BA3FB02139908F9
S11355B00B469B000B44D31ADBB2022B16D905E031
S11355C00C4B1B78013BDAB20A4B1A70094B1B785F
S11355D01946084B5B781846084A0B469B000B4457
S11355E0034412F82330DBB2782BE9D000BFBD4668
S11355F080BC704710010020CDCCCCCC38270020D3
S113560080B400AF2E4B5B78032B55D82C4B5B78C2
S11356100133DAB22A4B5A70294B5B78022B03D040
S1135620274B5B78042B47D1254B1A78254BA3FBDA
S1135630021399080B469B000B44D31ADBB2012BCF
S113564016D805E01E4B1B780133DAB21C4B1A70D6
S11356501B4B1B7819461A4B5B7818461A4A0B46A3
S11356609B000B44034412F82330DBB2782BE9D0BF
S1135670134B1A78134BA3FB021399080B469B0098
S11356800B44D31ADBB2022B16D905E00C4B1B7862
S1135690013BDAB20A4B1A70094B1B781946084BC6
S11356A05B781846084A0B469B000B44034412F8E7
S11356B02330DBB2782BE9D000BFBD4680BC7047F5
S11356C010010020CDCCCCCC3827002080B400AF12
S11356D0114B1B78002B1AD00F4B1B78013BDAB20D
S11356E00D4B1A700C4B5B7803F00103DBB2002BFB
S11356F00DD1094B1B78052B06D9074B1B78043BAE
S1135700DAB2054B1A7002E0034B02221A7000BF92
S1135710BD4680BC704700BF1001002080B400AFBC
S1135720104B1B78212B19D80E4B1B780133DAB29E
S11357300C4B1A700B4B5B7803F00103DBB2002BAC
S11357400CD1084B1B780433DAB2064B1A70054BA4
S11357501B78222B02D9034B20221A7000BFBD46AE
S113576080BC704710010020B0B59EB000AF7860D7
S1135770002387F877304DE0002387F8763040E047
S113578097F8772097F8761013469B0013440B4440
S11357909B0007F178021344002203F8692C97F860
S11357A0772097F8761013469B0013440B449B0014
S11357B007F178021344002203F86B2C97F8772042
S11357C097F8761013469B0013440B449B0007F193
S11357D078021344002203F86A2C97F8772097F88C
S11357E0761013469B0013440B449B0007F1780288
S11357F01344782203F86C2C97F87630013387F839
S1135800763097F87630042BBAD997F8773001338D
S113581087F8773097F87730042BADD9612387F870
S1135820443066233B76682387F82C306A2387F854
S113583040306B2387F85430622387F8683067233D
S113584087F83C3065233B74712387F82430702338
S113585087F838306E2387F84C30632387F860303C
S1135860642387F83430002387F8753052E000232E
S113587087F8743045E0002387F8733038E097F8F0
S1135880742097F8730097F875100B469B00194421
S113589097F87430194497F87340224D0B469B00D7
S11358A00B44191913469B00134403449A0007F14F
S11358B078031A448B002B446C3A1068186097F8EC
S11358C0752013469B001A4497F874301A4497F8CD
S11358D07310144813469B0013440B449B00034469
S11358E097F87520DA7097F87330013387F87330BE
S11358F097F87330042BC2D997F87430013387F8C2
S1135900743097F87430042BB5D997F87530013397
S113591087F8753097F87530062BA8D90020FCF766
S11359200BF925E73827002080B584B000AF7860F4
S11359300123BB730023FB7337E0BA7BFB7B1E4957
S1135940D200134411F813301846BA7BFB7B1A4972
S1135950D20013445B000B445B781946174A034694
S11359609B0003440B4412F82330DBB2782B19D08C
S1135970BA7BFB7B1049D200134411F8133018464C
S1135980BA7BFB7B0C49D20013445B000B445B786D
S113599019460A4A03469B0003440B449B001344E4
S11359A001225A70FB7B0133FB73FB7B072BC4D9A9
S11359B00020FCF7C1F8BBE71000002038270020C6
S11359C090B585B000AF78600023BB735AE0002324
S11359D07B7351E0BA7B797B474813469B001344A1
S11359E00B449B0003445B78DBB2002B27D0BA7BCB
S11359F0797B414813469B0013440B449B000344AA
S1135A009B78DBB2002B1AD0BA7B797B3A481346D9
S1135A109B0013440B449B000344DB78DCB2BA7B49
S1135A20797B354813469B0013440B4410F823300C
S1135A30DBB2012219462046FFF756FB19E0BA7B78
S1135A40797B2D4813469B0013440B449B0003446D
S1135A50DB78DCB2BA7B797B274813469B0013447E
S1135A600B4410F82330DBB2002219462046FFF71E
S1135A703BFB7B7B01337B737B7B042BAAD9BB7BF6
S1135A800133BB73BB7B222BA1D91C4B1B7819465A
S1135A901A4B5B781846184A0B469B000B44034488
S1135AA09B001344DB78D8B2144B1B781946134B74
S1135AB05B781C46104A0B469B000B44234412F8A7
S1135AC02330DBB2FA7B1946FFF70EFBFB7B002B7E
S1135AD014BF01230023DBB283F00103DBB2FB73A9
S1135AE0FB7B03F00103FB73054800F0F1F94FF46D
S1135AF0FA70FBF7F1FF67E7382700201001002058
S1135B002827002080B58AB002AF78600023FB7795
S1135B103F4B186800234FF0FF320021FBF74CFC89
S1135B20FFF70AFC0023FB6007F1100300221A6050
S1135B309A80384B1B781946364B5B781846364AA0
S1135B400B469B000B4403449B0013445B78DBB27D
S1135B50002B1CD02F4B1B7819462E4B5B78184614
S1135B602D4A0B469B000B4403449B001344012223
S1135B709A700023BB7706E0FFF7D2FB0123FB7783
S1135B80BB7F0133BB77BB7F042BF5D903E0FFF761
S1135B909DFB0023FB771F4B1B781A461D4B5B783C
S1135BA01946FB7F07F10C0000930B461B4900F0DC
S1135BB037FA0023BB610BE007F10C02BB69134405
S1135BC01B7819461648FFF766FABB690133BB61B7
S1135BD007F10C02BB6913441B78002BECD1114B69
S1135BE01B8801339AB20F4B1A800E4B1B88184640
S1135BF0FAF708FD00F050F80346002B88D00A4B52
S1135C001868002300220021FBF77EFA80E700BF1A
S1135C10F42900201001002038270020C06D000066
S1135C2000E00040C6260020042A002090B589B078
S1135C3000AF7860144B07F10C040FCB07C423802A
S1135C40124B186800234FF0FF320021FBF7B4FB1E
S1135C50FAF7D2FB0E48FAF791FD0023FB610BE043
S1135C6007F10C02FB6913441B7819460948FFF736
S1135C7012FAFB690133FB6107F10C02FB6913445F
S1135C801B78002BECD1E8E7D46D0000042A002037
S1135C90CC6D000000E0004080B483B000AF00236E
S1135CA0FB712AE00023BB7121E0FA79B979174826
S1135CB013469B0013440B449B0003445B78DBB204
S1135CC0002B11D0FA79B979104813469B0013447C
S1135CD00B449B0003449B78DBB283F00103DBB2EB
S1135CE0002B01D000230CE0BB790133BB71BB79DD
